:020000040800F2
:100000008812002099010008E11F00084516000829
:100010003D1B000821050008814A0008000000007F
:100020000000000000000000000000000F37000882
:10003000FD0F000800000000AF010008B10100083A
:10004000B3010008B3010008B3010008B3010008C0
:10005000B3010008B3010008B30100080110000853
:10006000B3010008B3010008B3010008B3010008A0
:10007000B3010008B3010008B3010008B301000890
:10008000B3010008B3010008B3010008B301000880
:10009000FD490008B3010008B3010008B3010008DE
:1000A000B3010008B3010008B3010008B301000860
:1000B000B3010008B3010008853B0008B301000844
:1000C000B3010008B3010008B3010008B301000840
:1000D000B301000889460008B3010008B301000815
:1000E000B3010008B3010008B301000800F002F8F2
:1000F00000F042F80AA090E8000C82448344AAF180
:100100000107DA4501D100F037F8AFF2090EBAE87D
:100110000F0013F0010F18BFFB1A43F0010318473B
:10012000F484000014850000103A24BF78C878C118
:10013000FAD8520724BF30C830C144BF04680C60ED
:10014000704700000023002400250026103A28BF35
:1001500078C1FBD8520728BF30C148BF0B60704739
:10016000642900F04780782900F0808000207047E3
:100170001FB51FBD10B510BD00F0A0F91146FFF767
:10018000F7FF04F08BFD00F0BEF903B4FFF7F2FFB8
:1001900003BC04F0AFFC0000094880470948004751
:1001A000FEE7FEE7FEE7FEE7FEE7FEE7FEE7FEE727
:1001B000FEE7FEE704480549054A064B7047000084
:1001C00089390008ED000008880C00208812002002
:1001D000880E0020880E0020704700000FB40449EC
:1001E00010B503AA029800F03BF910BC5DF814FBAF
:1001F000C80000202DE9F04106460024106875294A
:10020000314616A510D0AFF30080002802DA404234
:1002100013A507E031688A0701D512A502E0490756
:1002200004D511A5012401E0AFF3008000210A22CA
:1002300006F1240709E0B0FBF2FCB0FBF2F302FB8D
:100240001C00303078541846491C0028F3D123464E
:100250002A463046BDE8F04100F0A9B80000000091
:100260002D0000002B0000002000000070B50446A7
:100270000D4621461068AFF300802188090502D59C
:100280000F4A7A4402E00E4A7A440E32002104F109
:10029000240305E000F00F060009965D5E54491C3A
:1002A0000028F7D120780023000704D5702D02D054
:1002B00009B1022311322046BDE8704000F077B842
:1002C000528300002DE9F0410F4604460020DFF87C
:1002D0008480F84420622046E168884790B325284E
:1002E00006D0D4E901219047206A401C2062F2E741
:1002F00000252046E16888472028064608DB312E85
:1003000006D208EB060010F8200C08B10543F0E710
:10031000A80701D525F00405A6B1A6F141001928CA
:1003200002D8203645F400653A463146204625601D
:10033000FFF716FF48B1012805D0FF1D27F007077A
:100340000837C8E703E03F1DC5E73046C9E7206A24
:10035000BDE8F0812A8300004FF0000200B513468B
:1003600094469646203922BFA0E80C50A0E80C50D5
:10037000B1F12001BFF4F7AF090728BFA0E80C5086
:1003800048BF0CC05DF804EB890028BF40F8042B7F
:1003900008BF704748BF20F8022B11F0804F18BFEC
:1003A00000F8012B704770477047704770472DE980
:1003B000F0470D4699469246044600F1240801682C
:1003C000880604D5E06921F01001216000E00120D9
:1003D000A84201DD471B00E00027A1697A1902EB62
:1003E0000900081AA0612078C00602D42046AFF3A5
:1003F0000080002608E0D4E901211AF806009047A1
:10040000206A401C761C20624E45F4DB2078C00632
:100410000AD52046AFF3008006E0D4E90121302060
:100420009047206A401C2062381EA7F10107F4DCC7
:1004300007E0D4E9012118F805009047206A401C24
:100440002062281EA5F10105F3DC2046AFF30080F1
:100450002078000602D50220BDE8F0870120FBE7E6
:10046000074B70B50D467B4400F011F80446284652
:1004700000F020F810B14FF0FF3070BD204670BD85
:100480000F48000001694A1C02610878704700B5F6
:100490008FB0CDE901310021059105497944CDE9BD
:1004A000031011466846FFF70DFF0FB000BD0000B6
:1004B000E5FFFFFF007B00F080007047754600F00D
:1004C0002BF8AE4605006946534620F007008546E6
:1004D00018B020B5FFF76EFEBDE820404FF00006D3
:1004E0004FF000074FF000084FF0000B21F007011C
:1004F000AC46ACE8C009ACE8C009ACE8C009ACE85F
:10050000C0098D46704710B50446AFF30080204601
:10051000BDE81040FFF739BE00487047280C0020A6
:1005200000BFFEE72DE9F0418AB004460D461646AD
:100530001F46DDF840800121052002F0E7FE012181
:10054000480602F0C3FE03208DF826004FF48050C9
:10055000ADF8240018208DF8270009A92F4800F0D5
:1005600099FF4FF40060ADF8240048208DF8270073
:1005700009A92A4800F08EFF00208DF81E008DF892
:100580001F008DF8200001208DF8210000208DF83B
:1005900022008DF823008DF81A808DF81B408DF80D
:1005A0001C608DF81D50ADF8187006A91C4800F0AD
:1005B0005CF900208DF812008DF8130001208DF8F1
:1005C00014000020ADF80800ADF80A00ADF80C00EA
:1005D000ADF80E00ADF8100001208DF8150002A84E
:1005E00000F0B6F814208DF8040002208DF8050004
:1005F00000208DF8060001208DF8070001A801F009
:10060000FBFC01220221064800F026F9142001F02B
:10061000E8FC00200AB0BDE8F081000000080140BD
:1006200000640040F0B585B007460D460024122056
:100630000090019000208DF808008DF809008DF8D9
:100640000A5000BF05E0395D0DF10B000155601C3B
:1006500084B2AC42F7DB69460C4800F008FA064663
:10066000002401E0601C84B23146084800F092FA90
:1006700018B940F6FF708442F4DB40F6FF70844204
:1006800002DB012005B0F0BD0020FBE70064004064
:10069000B1F5007F3AD00FDC202928D006DC0129F3
:1006A0001CD004291DD0082940D11DE0402921D0AB
:1006B000B1F5807F3AD126E0B1F5004F31D006DCAC
:1006C000B1F5806F25D0B1F5006F2FD124E0B1F5E1
:1006D000803F12D0B1F5003F28D111E0154A826069
:1006E00025E00822C26022E01022C2601FE008223A
:1006F00002611CE01022026119E00822426016E04B
:100700001022426013E00422426010E004224260A2
:100710000DE0042242600AE000228261042242606D
:1007200005E0002282610422426000E000BF00BFB9
:10073000704700000101010021B9C26842F02002A7
:10074000C26003E0026942F02002026170470000CB
:1007500010B50021837A012202FA03F13D4A1268A2
:1007600042F001023B4B1A603A4A1C3212688A433B
:10077000384B1C331A60027BCAB9364A0C321268F5
:100780008A43344B0C331A604288C38842EA0343DD
:10079000304A4032847A42F834300288838842EA10
:1007A00003432C4A4032847A02EBC4025360027B3A
:1007B000012A19D1274A0C3212680A43254B0C33FF
:1007C0001A604288038842EA0343224A4032847A0C
:1007D00042F83430C288838842EA03431D4A4032DB
:1007E000847A02EBC4025360C27A3AB9194A121DE4
:1007F00012688A43174B1B1D1A6006E0154A121D2A
:1008000012680A43134B1B1D1A60028932B9114A40
:10081000143212688A430F4B14331A600289012A7A
:1008200006D10C4A143212680A430A4B14331A6078
:10083000427B012A06D1074A1C3212680A43054B43
:100840001C331A60034A126822F00102014B1A603D
:1008500010BD0000006600401AB143690B434361BC
:1008600002E043698B434361704730B50246002084
:100870000023146824F002041460146844F0010496
:10088000146000E05B1C546804F001041CB94FF6CE
:10089000FF74A342F6D1546804F001040CB900209F
:1008A0006CE08C79012C04D1146844F0800414604D
:1008B00003E0146824F080041460CC79012C04D186
:1008C000146844F04004146003E0146824F0400409
:1008D00014600C7A012C04D1146844F020041460D4
:1008E00003E0146824F0200414604C7A012C04D135
:1008F000146844F01004146003E0146824F0100439
:1009000014608C7A012C04D1146844F0080414603B
:1009100003E0146824F008041460CC7A012C04D19C
:10092000146844F00404146003E0146824F0040420
:1009300014608C78A407CD7844EA05640D7944EA04
:1009400005444D7944EA05540D886D1E2C43D4614D
:10095000146824F001041460002300E05B1C546858
:1009600004F001041CB14FF6FF74A342F6D15468A1
:1009700004F001040CB1002000E0012030BD10B5EE
:1009800000F5D87303EB01131B6803F00403137223
:10099000137A53B900F5D87303EB01131B6840F2C7
:1009A000FF7404EA5353136009E000F5D87303EBB6
:1009B00001131B686FF0604404EAD303536000F531
:1009C000D87303EB01131B6803F00203537200F5A5
:1009D000D87303EB01135B6803F00F03937200F508
:1009E000D87303EB01135B681B0AD37400F5D8734B
:1009F00003EB01139B68D37200F5D87303EB01136B
:100A00009B681C0A147300F5D87303EB01139B68F1
:100A10001C0C547300F5D87303EB01139B681B0E79
:100A2000937300F5D87303EB0113DB68D37300F500
:100A3000D87303EB0113DB681C0A147400F5D87338
:100A400003EB0113DB681C0C547400F5D87303EB43
:100A50000113DB681B0E937421B9C36843F02003B4
:100A6000C36003E0036943F02003036110BD10B5C8
:100A700002460020936803F08063B3F1806F00D1D9
:100A800010E0936803F00063B3F1006F01D101201F
:100A900008E0936803F08053B3F1805F01D1022036
:100AA00000E00420042874D002F5C07303EB0013A7
:100AB0001B6803F0010402F5C07303EB00131C6014
:100AC0000B7A7BB94B7A0C8843EA445302F5C07425
:100AD00004EB00142468234302F5C07404EB0014F3
:100AE000236010E00B7A4C6843EAC4034C7A23433A
:100AF00002F5C07404EB00142468234302F5C074AB
:100B000004EB001423608B7A03F00F038B7202F561
:100B1000C07303EB00135B6823F00F0402F5C0738E
:100B200003EB00135C6002F5C07303EB00135B681A
:100B30008C7A234302F5C07404EB001463608B7B52
:100B40001C064B7B44EA03440B7B44EA0323CC7A28
:100B5000234302F5C07404EB0014A3608B7C1C06D5
:100B60004B7C44EA03440B7C44EA0323CC7B2343C1
:100B700002F5C07404EB0014E36002F5C07303EBEC
:100B800000131B6843F0010402F5C07303EB00136C
:100B90001C6010BD10B50246002321B1012907D009
:100BA00002290FD109E090681D4C00EA04030BE014
:100BB00090681C4C00EA040306E090681A4C00EAB6
:100BC000040301E0002300BF00BF184C181BA34220
:100BD00016D007DC83B16FF08060184470B1022832
:100BE00018D111E0B0F5007F10D0114C204448B16D
:100BF000B0F5003F0ED10BE002230DE000230BE027
:100C0000002309E0002307E0012305E0012303E0BE
:100C1000012301E0002300BF00BFD8B210BD0000D7
:100C20000300000400030008000003100001000896
:100C30000001FFF72DE9FE4F00240025A046A14644
:100C4000002002900190002682460120DB490870B6
:100C50005021002002F03AFA00270EE00120D84986
:100C60000860FA2003F0CCFF0020D649C1F8B40197
:100C7000FA2003F0C5FF781CC7B2042FEEDB002773
:100C80003DE00024142003F0BBFF02F0C9FB8046C6
:100C9000A3461AE002F0C4FB0546A5EB080010F5D8
:100CA000005F02DA05F5804506E0A5EB0800B0F527
:100CB000005F01DDA5F580452C440A2003F0A0FF6C
:100CC000A8460BF1010000F0FF0BBBF10A0FE1DBBE
:100CD0000A2094FBF0F4B4F5804F02DDA4F58044C3
:100CE00003E0002C01DA04F58044B74840F82740BF
:100CF00002F0C4F9642003F083FF781C07B2C72F09
:100D0000BFDD0020AD49087002F0B8F94FF47A70E9
:100D100003F076FF4FF0C70A43E00024142003F0ED
:100D20006FFF02F07DFB8046002718E002F078FBA1
:100D30000546A5EB080010F5005F02DA05F58045D1
:100D400006E0A5EB0800B0F5005F01DDA5F58045E4
:100D50002C440A2003F054FFA846781CC7B20A2F7F
:100D6000E4DB0A2094FBF0F4B4F5804F02DDA4F537
:100D7000804403E0002C01DA04F58044924951F8E4
:100D80002A10081900EBD07149108F4A42F82A1036
:100D900002F074F9642003F033FFAAF101000FFAA6
:100DA00080FABAF1000FB8DA0021884803F0B7FBE7
:100DB0000021864803F0B5FB002033E0411CC82227
:100DC00091FBF2F302FB13117F4A52F82110C82263
:100DD00090FBF2F302FB13027B4B53F822208E1A96
:100DE0007B498E4202DA06F5804605E043F69821FB
:100DF0008E4201DDA6F5804600210FE0724B53F8CC
:100E000020305A18D31702EB93439B13A2EB833382
:100E10000193019A0AB981460291491CB142EDDB66
:100E2000411CC8B2C828C9DB00F0DEF900F0FCF9AB
:100E30004F468CE0781CC82190FBF1F201FB1200B8
:100E4000614951F82000C82197FBF1F201FB1271B2
:100E50005D4A52F82110461A5D48864201DA06F5CD
:100E600080464F4524D1DDF808B01EE04FEA4B30F4
:100E700090FBF6F04FF4005101FB07004FF4C8114E
:100E800090FBF1F201FB1200642190FBF1F080B2C3
:100E9000009050480099006800F0BCFA4D48006886
:100EA000801C4C4908600BF1010BB345DEDB4DE0C3
:100EB00009F1C800874225D14FF0000B1EE04FEA30
:100EC0004B3090FBF6F04FF4005101FB07004FF45C
:100ED000C81190FBF1F201FB1200642190FBF1F0CC
:100EE00080B200903B480099006800F093FA3948BE
:100EF0000068801C374908600BF1010B029883459C
:100F0000DDDB23E04FF0000B1EE04FEA4B3090FB9F
:100F1000F6F04FF4005101FB07004FF4C81190FBAD
:100F2000F1F201FB1200642190FBF1F080B200901D
:100F300028480099006800F06DFA26480068801C77
:100F4000244908600BF1010BB345DEDB7F1C09F17E
:100F5000C9008742FFF66EAF00F01CF91E4800780A
:100F6000012826D001201D4908704AF6CC201C49D2
:100F7000088080204880102088800420C8800320BA
:100F800008810020488101208881C8810882154895
:100F90000088C88214480088088314480088488361
:100FA0004AF6CC20124908800E220D49114802F061
:100FB00027FB012010490870BDE8FE8F1C000020AF
:100FC000B401224200002242080500200004004033
:100FD00068C5FFFFDC0000205900002079000020D8
:100FE000E00000200000002002000020040000209B
:100FF0004E000020007C01085800002070470000CF
:1010000010B51248006801280DD111480078012858
:1010100004D10021800703F072F812E01021880645
:1010200003F06DF80DE00A480078012804D1102182
:10103000800703F064F804E000214FF0804003F0E3
:101040005EF8022000F03CF810BD000004012142CF
:101050006F0000201FB501210D2002F057F9062076
:10106000ADF80C0048208DF80F0003208DF80E001D
:1010700003A9124800F00EFA0121002000F0EAF95D
:101080000220019000208DF8080010208DF8090042
:1010900001208DF80A0001A800F018F807208DF84B
:1010A000000000208DF8010001208DF802008DF86D
:1010B0000300684600F0A0FF1FBD000000080140CB
:1010C00001490860704700001404014000212349D1
:1010D0008279002A3AD00A46126803689A430B467E
:1010E0001A600A1D126803689A430B1D1A60027980
:1010F00011440A6803681A430A60184A08321268E1
:1011000003689A43154B08331A601A1D1268036866
:101110009A43124B0C331A604279102A0ED11A1FCF
:10112000126803681A430D4B08331A601A1D1268BF
:1011300003681A43094B0C331A600DE007494279E2
:1011400011440A6803681A430A6005E002791144F1
:101150000A6803689A430A6070470000000401406F
:1011600004200B49C96801F0010109B101200EE01A
:101170000749C96801F0040109B1022007E00449E8
:10118000C96801F0100109B1032000E00420704794
:10119000002002400348006940F0800001490861D6
:1011A000704700000020024070B504460D4604263A
:1011B000F00200F025F80646042E11D10948006916
:1011C00040F00100074908612580F00200F018F89E
:1011D00006460448006941F6FE710840014908616D
:1011E000304670BD00200240024803494860034871
:1011F000486070472301674500200240AB89EFCD6E
:1012000000B502460423FFF7ABFF034603E0FFF7F8
:10121000A7FF0346521E012B01D1002AF7D102B9C4
:101220000523184600BD000010B5304800F09EF8B8
:101230002F4800F09BF82F4800F098F82E4800F057
:1012400095F82E4800F092F82D4800F08FF82D48C0
:1012500000F08CF82C4800F089F82C4800F086F853
:101260002B4800F083F82B4800F080F82A4800F063
:101270007DF82A4800F07AF8294800F077F82948E4
:1012800000F074F8284800F071F8284800F06EF873
:10129000274800F06BF8274800F068F8264800F06F
:1012A00065F8264800F062F8254800F05FF8254808
:1012B00000F05CF8244800F059F8244800F056F893
:1012C000234800F053F8234800F050F8224800F07B
:1012D0004DF8224800F04AF8214800F047F821482C
:1012E00000F044F8204800F041F810BD00800108EB
:1012F0000084010800880108008C010800900108A2
:101300000094010800980108009C010800A0010851
:1013100000A4010800A8010800AC010800B0010801
:1013200000B4010800B8010800BC010800C00108B1
:1013300000C4010800C8010800CC010800D0010861
:1013400000D4010800D8010800DC010800E0010811
:1013500000E4010800E8010800EC010800F00108C1
:1013600000F4010800F8010800FC010870B505460A
:10137000002445F6FF7000F038F80446C4B90D4863
:10138000006940F002000B490861084645610069A8
:1013900040F04000086145F6FF7000F026F8044672
:1013A000012C05D00348006920F0020001490861C2
:1013B000204670BD002002400948C16801F00100CC
:1013C00008B10120704701F0040008B10220F9E7DC
:1013D00001F0100008B10320F4E70020F2E700005C
:1013E0000020024001460888704770B5044600BFDF
:1013F000FFF7E2FF0546012D00D006E0012003F0D3
:101400001DFC601E84B2002CF2D100BF04B9FF2580
:10141000284670BD70B505460E46FF20FFF7E5FF74
:10142000044694B90A48006940F00100084908617F
:101430002E80FF20FFF7D9FF0446012C05D0044879
:10144000006920F0010002490861204670BD0000DB
:101450000020024030B500228B071C0F0F2303FA37
:1014600004F20B4B8C1053F824309343084C8D102E
:1014700044F8253023468C1053F824308C07240F71
:1014800000FA04F42343024C8D1044F8253030BD9B
:10149000080001402DE9F041024600250026002009
:1014A00000230024002791F803C00CF00F0591F8E9
:1014B00003C00CF0100CBCF1000F03D091F802C077
:1014C0004CEA050591F800C0BCF1000F31D014685A
:1014D00000202BE04FF0010C0CFA00F3B1F800C033
:1014E0000CEA03069E4220D183004FF00F0C0CFA49
:1014F00003F7BC4305FA03FC4CEA040491F803C06B
:10150000BCF1280F06D14FF0010C0CFA00FCC2F818
:1015100014C00AE091F803C0BCF1480F05D14FF0A8
:10152000010C0CFA00FCC2F810C0401C0828D1D3F2
:101530001460B1F800C0BCF1FF0F34DD5468002026
:101540002EE000F1080C4FF0010808FA0CF3B1F896
:1015500000C00CEA03069E4221D183004FF00F0C1D
:101560000CFA03F7BC4305FA03FC4CEA040491F8B7
:1015700003C0BCF1280F05D100F1080C08FA0CF8E3
:10158000C2F8148091F803C0BCF1480F07D100F1F4
:10159000080C4FF0010808FA0CF8C2F81080401C43
:1015A0000828CED35460BDE8F0810000F0B50A46AB
:1015B000002300240021002500F00046B6F1004F72
:1015C00002D11D4EF16901E01B4E7168C0F3034565
:1015D00083B200F44016B6F5401F08D121F07061C7
:1015E000154E766826F07066134F7E6012E000F4A8
:1015F0008016B6F5801F06D1032606FA05F4A1432E
:1016000041F0706106E0460D360103FA06F6B1437B
:1016100041F0706122B1460D360103FA06F63143FE
:1016200000F00046B6F1004F02D1034EF16101E037
:10163000014E7160F0BD0000000001404161704743
:101640000161704700BFFEE710B500F001F810BD62
:101650004AF6AA20014908607047000000300040A7
:1016600010B5FA480068002876D10A2003F0C8FABD
:10167000F648006800281DD1F54800780028FAD106
:10168000F44800780028F6D10120F2490870F249A8
:101690000870F2480088AA21B1EB202F0BD0F04847
:1016A0000078401CEE49087008460078012801DDEA
:1016B00000200870C9E1EB48007801280BD1E84808
:1016C0000078401CE6490870084600780728F1DDDC
:1016D00002200870B9E1E348007802280BD1E24803
:1016E0000078401CE0490870084600782128E1DDB8
:1016F00000200870A9E1DB48007803280BD1DB4803
:101700000078401CD9490870084600780428D1DDCB
:101710000020087099E1D348007804280BD1D44800
:101720000078401CD2490870084600780128C1DDC5
:101730000020087089E1CB4800780528BAD1CD484F
:101740000078401CCB490870084600780128B1DDBC
:101750000020087079E1FFE7C748006868BB0A20ED
:1017600003F04EFAC44800680028A3D1C3480078AB
:1017700000289FD10120C1490870B749087000F0C6
:101780007DFCBF48007801280BD10020BC490870BF
:10179000AF4908700220B24908700120B1490870B1
:1017A00053E1AB480078401CA9490870084600780E
:1017B00001288FDD0020087047E1AF48001D006858
:1017C00000287CD10A2003F01BFAAB48001D0068FA
:1017D00000288FD1AB48007800288BD10120A9497F
:1017E00008709B48007800286AD19D480078082836
:1017F00067D2DFE800F00407113A6796DBFD01F0DD
:1018000087FF18E101209E490870914908709249AC
:10181000087000F033FC0EE100214FF0804002F030
:1018200062FC002098490870072001218140974AF6
:10183000430942F8231000BF01209549087001F0C8
:1018400067FF0720012181404209920002F1E02256
:10185000C2F8001100BF0121880702F044FC0120FA
:10186000894908707F490870E5E000F007FC012015
:101870007949087087480078401C864908700846F6
:101880000078012802D1022076490870814800784A
:10189000022813D100207F49087001207149087087
:1018A0007D4800787D49087001207D4908707B489B
:1018B00000787C4948806C4800788880BBE0BDE0B7
:1018C000BBE0B7E000F0DAFB012063490870714823
:1018D0000078401C6F49087008460078012802D142
:1018E0000320604908706B480078022818D1002056
:1018F0006849087001205B4908700020624908703F
:1019000001F05AFC68480078684908700120644971
:101910000870664800786349C88054480078088198
:1019200089E000F0ABFB01204B4908705948007872
:10193000401C5849087008460078012802D104204C
:10194000484908705348007802282ED10020514998
:10195000087001204349087000204B49087001F0CD
:101960002BFC53480078AA2803D100205149087065
:1019700006E04F480078552802D101204D490870F3
:101980004B480078552803D049480078AA280CD144
:1019900000204749087001204149087045480078F7
:1019A0004049488132480078888144E000F066FB75
:1019B00001202949087037480078401C35490870D3
:1019C00008460078012802D10520264908703148D0
:1019D0000078022823D100202E49087001202149D7
:1019E000087033480078112805D10120324900E001
:1019F00016E0087006E02E480078222802D1002068
:101A00002D49087000202A490870012024490870D7
:101A1000294800782349C8811648007808820AE0DE
:101A20000120174908700A4908700B49087000F036
:101A300025FB00E000BF00BF00BF06E00020054915
:101A400008700E4908700F49087010BD0C01214242
:101A500050000020CD000020530000204E00002048
:101A6000510000205A0000205B0000205C00002094
:101A70005D0000205E00002000812142CE00002099
:101A8000D0000020CF0000204D00002080E100E0C9
:101A900059000020D10000206B0000206A000020C7
:101AA00079000020E00000206C00002048000020A9
:101AB0006E000020720000206F00002008B5012198
:101AC0000C2001F023FC0320ADF8000048208DF825
:101AD000030003208DF8020069460848FFF7DAFC8E
:101AE0000820ADF8000048208DF8030003208DF891
:101AF000020069460248FFF7CDFC08BD000C01401A
:101B00000008014008B50121102001F0FFFB4FF44F
:101B10000050ADF8000010208DF8030002208DF871
:101B2000020069460448FFF7B5FC4FF40051024833
:101B3000FFF784FD08BD00000010014000BFFEE774
:101B4000034693FBF1F001FB103002B2002A02DAE7
:101B5000501800B270471046FCE700002DE9F0472E
:101B600086B0142101A8FEF7F7FB4FF0000AFE48EB
:101B7000007801287ED1FD4800780128FAD10020A4
:101B8000F9490870FA480088FA490988401A00B2F1
:101B9000F94908800846B0F90000002803DB20203E
:101BA0008DF80C000DE02D208DF80C00F248B0F9F6
:101BB0000000C043F049088008460088401C00B27D
:101BC0000880ED480088C0EB0010800000B2EA49B0
:101BD00008800846B0F900004FF47A7190FBF1F0EC
:101BE00040B28DF80400E448B0F9000090FBF1F237
:101BF00001FB1200642190FBF1F040B28DF805006A
:101C0000DD48B0F9000090FBF1F201FB12000A215F
:101C100090FBF1F040B28DF80600D748B0F9000013
:101C200090FBF1F201FB120040B28DF80700D3489F
:101C30000068002806DB20208DF80800CF48D0F887
:101C400000A006E02D208DF80800CC480068C0F107
:101C5000000A504603F07BFD0646C94AC94B03F013
:101C600089FD04460022C84B03F084FD804603F042
:101C700041FD00E09BE182466420BAFBF0F0C349DD
:101C800008806420BAFBF0F100FB11A0C049088075
:101C9000BE480088642190FBF1F040B28DF8090045
:101CA000BA48008890FBF1F201FB12000A2190FB78
:101CB000F1F040B28DF80A00B448008890FBF1F2D0
:101CC00001FB120040B28DF80B00B148008890FB78
:101CD000F1F040B28DF80D00AD48008890FBF1F2B4
:101CE00001FB120040B28DF80E00AA4800680028DF
:101CF00006DB20208DF81000A648D0F800A006E0F2
:101D00002D208DF81000A3480068C0F1000A4FF4A0
:101D1000B4700AFB00F000EB8000C0F3513A9E481B
:101D2000824510D91D208DF8110031208DF8120048
:101D300048208DF81300F0208DF814008DF8150060
:101D40008DF80F0058E00A20BAFBF0F08F490880A8
:101D50000846008842F20F71884210DD1D208DF880
:101D6000110031208DF8120048208DF81300F0206A
:101D70008DF814008DF815008DF80F003CE00A2056
:101D8000BAFBF0F100FB11A0814908807F48008870
:101D90004FF47A7190FBF1F040B28DF811007B485E
:101DA000008890FBF1F201FB1200642190FBF1F03E
:101DB00040B28DF812007548008890FBF1F201FBEB
:101DC00012000A2190FBF1F040B28DF813006F4829
:101DD000008890FBF1F201FB120040B28DF8140074
:101DE000FE208DF815006A48008890FBF1F201FB97
:101DF000120040B28DF80F00012000909DF80C20D9
:101E000010230221302000F05DFA012000909DF89F
:101E100004003030C2B210230221382000F052FA00
:101E2000012000909DF805003030C2B2102302213D
:101E3000402000F047FA012000909DF80600303065
:101E4000C2B210230221482000F03CFA0120009089
:101E50009DF807003030C2B210230221502000F05C
:101E600031FA012000909DF808201023162130201F
:101E700000F028FA012000909DF809003030C2B22D
:101E800010231621382000F01DFA012000909DF843
:101E90000A003030C2B210231621402000F012FA9E
:101EA000012000909DF80B003030C2B210231621A3
:101EB000482000F007FA012000909DF80D00303016
:101EC000C2B210231621582000F0FCF90120009026
:101ED0009DF80E003030C2B210231621602000F0B1
:101EE000F1F9012000909DF8102010232A213020C4
:101EF00000F0E8F9012000909DF811003030C2B2E6
:101F000010232A21382000F0DDF9012000909DF8EF
:101F100012003030C2B210232A21402000F0D2F942
:101F2000012000909DF813003030C2B210232A2106
:101F3000482000F0C7F9012000909DF814003030CF
:101F4000C2B210232A21502000F0BCF901200090D9
:101F50009DF815003030C2B210232A21582000F01D
:101F6000B1F90120009019E0540000205000002039
:101F70006400002062000020600000203400002087
:101F800022FAB5F5D37F963F00005940D8000020D3
:101F9000DA000020240000209F8601009DF80F0039
:101FA0003030C2B210232A21602000F08BF906B035
:101FB000BDE8F08708B50121082001F0A7F94FF42A
:101FC0007070ADF8000010208DF8030003208DF82C
:101FD000020069460148FFF75DFA08BD000C0140A8
:101FE000704700F01F02012191404209920002F166
:101FF000E022C2F80011704770B5002100230F22C3
:10200000C47804B3154C246804F4E064C4F5E064B7
:10201000210AC1F10403CA40447804FA03F1847828
:102020001440214309010E4C0678A155047804F0B0
:102030001F050124AC4005786D11AD0005F1E025C8
:10204000C5F8004109E0047804F01F050124AC4004
:10205000044D0678761145F8264070BD0CED00E081
:1020600000E400E080E100E002490143024A11601F
:10207000704700000000FA050CED00E030B50024C8
:102080000CE0002506E00020074901EBC5010855DA
:10209000681CC5B2802DF6DB601CC4B2082CF0DBD6
:1020A00000F0EAF830BD000005010020F0B514464C
:1020B00000267F2801DC3F2900DDF0BD0B46CF174D
:1020C00001EB5777FF10C7F10707FAB2CF1701EB03
:1020D0005777FF10A1EBC707FDB2C5F10707012332
:1020E000BB40DEB24CB10A4B03EBC0039B5C3343F5
:1020F000074F07EBC007BB5408E0054B03EBC003D9
:102100009B5CB343024F07EBC007BB5400BFD4E74F
:102110000501002010B55248806940F00800504980
:1021200088610846806940F0040088614D48006875
:1021300020F00F004B4908600846006840F003009B
:10214000086048480830006840F48070454908310C
:1021500008604548006880B2434908600846006846
:1021600042490843404908603F480830006840F44D
:1021700070403D490831086000203D4908606420F6
:1021800002F03EFD01203B49C1F8A0010021AE2034
:1021900000F010F90021D52000F00CF900215020AA
:1021A00000F008F90021A82000F004F900213F20E8
:1021B00000F000F90021D32000F0FCF800210846CF
:1021C00000F0F8F80021402000F0F4F800218D2004
:1021D00000F0F0F80021142000F0ECF8002120209D
:1021E00000F0E8F80021022000F0E4F80021A1202E
:1021F00000F0E0F80021C02000F0DCF80021DA2037
:1022000000F0D8F80021122000F0D4F8002181203D
:1022100000F0D0F80021EF2000F0CCF80021D92008
:1022200000F0C8F80021F12000F0C4F80021DB2004
:1022300000F0C0F80021302000F0BCF80021A420FC
:1022400000F0B8F80021A62000F0B4F80021AF207B
:1022500000F0B0F8642002F0D3FCFFF70FFF10BDD0
:102260000010024004080140040C01400000333318
:10227000A00121420000214230B500241CE004F1FD
:10228000B001C8B2002100F095F80021084600F026
:1022900091F80021102000F08DF8002508E0084991
:1022A00001EBC501085D012100F084F8681CC5B28E
:1022B000802DF4DB601CC4B2082CE0DB30BD0000D4
:1022C000050100202DE9F04F80460C4615461E46BC
:1022D000A346A5F12000C5B200273EE00C2E07D191
:1022E00005EB4500204901EB800010F8079004E061
:1022F0001E4800EB051010F807904FF0000A26E08A
:1023000009F0800028B121464046099AFFF7CEFE29
:1023100009E0099808B9012000E0002002462146A2
:102320004046FFF7C3FE4FEA49604FEA1069601C60
:10233000C4B2A4EB0B00B04205D15C4608F1010029
:1023400000F0FF0806E00AF1010000F0FF0ABAF110
:10235000080FD5DB00BF781CC7B2B742BEDBFFF762
:102360008BFFBDE8F08F0000725B0008E65F00089D
:1023700078B505460E46144618E07A2D03DD002593
:1023800006F11000C6B23A2E04DD002005460646CE
:10239000FFF774FE01200090227810233146284672
:1023A000FFF790FF05F10800C5B2641C20780028F3
:1023B000E3D178BD10B5144B19600023134CC4F859
:1023C000B031002216E000230F4C0834236000F0E7
:1023D00080031BB10123241F236003E000230A4C68
:1023E000241D23600123084C083423604306180E83
:1023F000531CDAB2082AE6DB0123034C241F2360B6
:10240000024CC4F8B43110BDB48121420080214295
:1024100010B5FE480078012840F0E0850020FB4917
:102420000870FB48007820B1012840F0D58500F005
:10243000C3BDF848007810B1012816D10AE0F6A211
:1024400000210846FFF794FFF4A210210020FFF7B7
:102450008FFF10E0F1A200210846FFF789FFEEA2EE
:1024600010210020FFF784FF05E0EBA200210846C1
:10247000FFF77EFF00BF00BFE9480088AA21B1EB4B
:10248000202F0BD0E7A200211020FFF771FFE8A258
:1024900010210846FFF76CFF00F08DBDE64800787C
:1024A00001287CD1DB480078801E062875D2DFE841
:1024B00000F003182D425767E0A200211020FFF71B
:1024C00057FFE1A210210846FFF752FFE1A22021A9
:1024D0001020FFF74DFFE2A230211020FFF748FF48
:1024E0005CE0D9A200211020FFF742FFD9A2102101
:1024F0000846FFF73DFFDAA220211020FFF738FF42
:10250000DAA230211020FFF733FF47E0D1A20021EB
:102510001020FFF72DFFD2A210210846FFF728FF59
:10252000D2A220211020FFF723FFD3A230211020B8
:10253000FFF71EFF32E0CAA200211020FFF718FFAC
:10254000CAA210210846FFF713FFCBA220211020BA
:10255000FFF70EFFCBA230211020FFF709FF1DE08F
:10256000C2A200211020FFF703FFC3A210210846DA
:10257000FFF7FEFEC3A220211020FFF7F9FE0DE0B9
:10258000BDA200211020FFF7F3FEC1A210210846D2
:10259000FFF7EEFE02E002E0FFE700BF7CE7A6489F
:1025A0000078022875D1BD480078222872D2DFE871
:1025B00000F011294158728AA2BAD2FDFCFBFAF947
:1025C000F8F7F6F5F4F3F2F1F0EFEEEDECEBEAE903
:1025D000E8E7E6E5B2A200211020FFF7C9FEB2A2AB
:1025E00010210846FFF7C4FEB0A220211020FFF7FB
:1025F000BFFEAFA230211020FFF7BAFE0020AD4988
:102600000870F6E30820AB490870A7A2002110204B
:10261000FFF7AEFEA5A210210846FFF7A9FEA4A26F
:1026200020211020FFF7A4FEA3A230211020FFF7E5
:102630009FFEDEE310209F4908709CA20021FFF757
:1026400097FE9BA210210846FFF792FE9AA2202136
:102650001020FFF78DFE99A230211020FFF788FE91
:10266000C7E318209349087091A200211020FFF7BA
:102670007FFE91A210210846FFF77AFE8FA220214B
:102680001020FFF775FE8EA230211020FFF770FE9C
:10269000AFE3AFE3ACE320208649087086A20021B7
:1026A0001020FFF765FE85A210210846FFF760FEA7
:1026B00083A220211020FFF75BFE82A23021102090
:1026C000FFF756FE95E328207A4908707BA2002187
:1026D0001020FFF74DFE7AA210210846FFF748FEB2
:1026E00078A220211020FFF743FE77A2302110208E
:1026F000FFF73EFE7DE330206E49087070A2002196
:102700001020FFF735FE6FA210210846FFF730FEBC
:102710006DA220211020FFF72BFE6CA2302110208B
:10272000FFF726FE65E338206249087065A20021A4
:102730001020FFF71DFE64A210210846FFF718FEC7
:1027400062A220211020FFF713FE61A23021102089
:10275000FFF70EFE4DE34020564908705AA20021B3
:102760001020FFF705FE59A210210846FFF700FED2
:1027700057A220211020FFF7FBFD18E028E311E30A
:102780009DE284E26BE252E239E220E207E2EEE10E
:10279000D5E1BCE1A3E18AE171E158E13FE126E145
:1027A0000DE1F4E0DBE0C1E0A6E01EE005E04AA2B6
:1027B00030211020FFF7DCFD1BE348203D49087065
:1027C00042A200211020FFF7D3FD41A210210846AC
:1027D000FFF7CEFD40A220211020FFF7C9FD40A247
:1027E00030211020FFF7C4FD03E350203149087069
:1027F00037A200211020FFF7BBFD37A210210846A9
:10280000FFF7B6FD36A2202110206DE05300002016
:1028100050000020510000202D3E0000202000002C
:102820004E00002043616C6962726174696F6E00D2
:1028300045786974000000005A0000202043616C54
:102840006962726174650000204D6F746F72206D53
:1028500041200000204D6963726F73746570000041
:1028600020456E61626C6550696E0000204469729B
:1028700050696E20202000002045786974202020B7
:1028800020200000202020202020202020200000C8
:102890002020202020202020202020005B0000205D
:1028A0003020202000000000313030003230300075
:1028B000333030006B0000203430300035303000D1
:1028C00036303000373030003830300039303000AA
:1028D0003130303000000000313130300000000075
:1028E0003132303000000000FFF742FDFEA23021FF
:1028F0001020FFF73DFD7CE25820FD490870AFF243
:10290000280200211020FFF733FDAFF22C02102126
:102910000846FFF72DFDF4A220211020FFF728FD27
:10292000F4A230211020FFF723FD62E26020F0497D
:102930000870AFF2540200211020FFF719FDEAA23F
:1029400010210846FFF714FDEAA220211020FFF70E
:102950000FFDEAA230211020FFF70AFD49E26820AE
:10296000E3490870E0A200211020FFF701FDE1A279
:1029700010210846FFF7FCFCE0A220211020FFF701
:10298000F7FCE0A230211020FFF7F2FC31E27020CA
:10299000D7490870D7A200211020FFF7E9FCD7A281
:1029A00010210846FFF7E4FCD6A220211020FFF7F3
:1029B000DFFCD6A230211020FFF7DAFC19E27820E4
:1029C000CB490870CDA200211020FFF7D1FCCDA289
:1029D00010210846FFF7CCFCCCA220211020FFF7E5
:1029E000C7FCCCA230211020FFF7C2FC01E28020FE
:1029F000BF490870C3A200211020FFF7B9FCC3A291
:102A000010210846FFF7B4FCC2A220211020FFF7D6
:102A1000AFFCC2A230211020FFF7AAFCE9E1882018
:102A2000B3490870B9A200211020FFF7A1FCB9A298
:102A300010210846FFF79CFCB8A220211020FFF7C8
:102A400097FCB8A230211020FFF792FCD1E1902032
:102A5000A7490870AFA200211020FFF789FCAFA2A0
:102A600010210846FFF784FCAEA220211020FFF7BA
:102A70007FFCAEA230211020FFF77AFCB9E198204C
:102A80009B490870A5A200211020FFF771FCA5A2A8
:102A900010210846FFF76CFCA4A220211020FFF7AC
:102AA00067FCA4A230211020FFF762FCA1E1A02066
:102AB0008F4908709BA200211020FFF759FC9BA2B0
:102AC00010210846FFF754FC9AA220211020FFF79E
:102AD0004FFC9AA230211020FFF74AFC89E1A82080
:102AE0008349087091A200211020FFF741FC91A2B8
:102AF00010210846FFF73CFC90A220211020FFF790
:102B000037FC90A230211020FFF732FC71E1B02099
:102B10007749087087A200211020FFF729FC87A2BF
:102B200010210846FFF724FC86A220211020FFF781
:102B30001FFC86A230211020FFF71AFC59E1B820B3
:102B40006B4908707DA200211020FFF711FC7DA2C7
:102B500010210846FFF70CFC7CA220211020FFF773
:102B600007FC7CA230211020FFF702FC41E1C020CD
:102B70005F49087073A200211020FFF7F9FB73A2D0
:102B800010210846FFF7F4FB72A220211020FFF766
:102B9000EFFB72A230211020FFF7EAFB29E1C820E9
:102BA0005349087069A200211020FFF7E1FB69A2D8
:102BB00010210846FFF7DCFB68A220211020FFF758
:102BC000D7FB68A230211020FFF7D2FB11E1D02003
:102BD000474908705FA200211020FFF7C9FB5FA2E0
:102BE00010210846FFF7C4FB5EA220211020FFF74A
:102BF000BFFB5EA230211020FFF7BAFBF9E0D8201E
:102C00003B49087055A200211020FFF7B1FB55A2E7
:102C100010210846FFF7ACFB54A220211020FFF73B
:102C2000A7FB54A230211020FFF7A2FBE1E0E02037
:102C30002F4908704BA200211020FFF799FB4BA2EF
:102C400010210846FFF794FB4AA220211020FFF72D
:102C50008FFB4AA230211020FFF78AFBC9E0E82051
:102C60002349087041A200211020FFF781FB41A2F7
:102C700010210846FFF77CFB40A220211020FFF71F
:102C800077FB40A230211020FFF772FBB1E0F0206B
:102C90001749087037A200211020FFF769FB37A2FF
:102CA00010210846FFF764FB36A220211020FFF711
:102CB0005FFB36A230211020FFF75AFB99E0F82085
:102CC0000B4908702DA200211020FFF751FB2DA207
:102CD00010210846FFF74CFB2CA220211020FFF703
:102CE00047FB2CA2302159E0313330300000000086
:102CF0006B000020313430300000000031353030BE
:102D00000000000031363030000000003137303034
:102D10000000000031383030000000003139303020
:102D2000000000003230303000000000323130301E
:102D3000000000003232303000000000323330300A
:102D400000000000323430300000000032353030F6
:102D500000000000323630300000000032373030E2
:102D600000000000323830300000000032393030CE
:102D700000000000333030300000000033313030CC
:102D800000000000333230300000000033333030B8
:102D90000000000020202020000000001020FFF78D
:102DA000E7FA26E0FF208E490870AFF228020021E2
:102DB0001020FFF7DDFAAFF22C0210210846FFF7D2
:102DC000D7FAAFF2300220211020FFF7D1FA10E03D
:102DD000FF2083490870AFF24C0200211020FFF75A
:102DE000C7FAAFF2500210210846FFF7C1FA00E01F
:102DF00000BFE0E07B480078032877D17A4800786C
:102E0000052871D2DFE800F0031B324B5F00202061
:102E10007649087076A200211020FFF7A9FA75A262
:102E200010210846FFF7A4FA73A220211020FFF713
:102E30009FFA72A230211020FFF79AFA55E0102075
:102E40006A4908706BA20021FFF792FA6AA210216A
:102E50000846FFF78DFA69A220211020FFF788FAB3
:102E600067A230211020FFF783FA3EE008205F4977
:102E7000087061A200211020FFF77AFA5FA21021EA
:102E80000846FFF775FA5EA220211020FFF770FABE
:102E9000AFF2786230211020FFF76AFA25E00420B3
:102EA0005249087055A200211020FFF761FA54A280
:102EB00010210846FFF75CFAAFF2A0622021102033
:102EC000FFF756FA11E00220484908704CA2002191
:102ED0001020FFF74DFAAFF2BC6210210846FFF751
:102EE00047FA02E002E0FFE700BF64E03D480078F7
:102EF000042824D14348007810B101281DD10DE0E9
:102F000055204149087041A200211020FFF730FAF6
:102F100040A210210846FFF72BFA0FE0AA203A49F9
:102F200008703CA200211020FFF722FAAFF29C6249
:102F300010210846FFF71CFA00E000BF3BE02948DB
:102F40000078052837D13548007810B1012830D1F4
:102F500017E033480078012808D100203049087074
:102F60000120304908701120274908702EA2002145
:102F70001020FFF7FDF92FA210210846FFF7F8F9FE
:102F800018E028480078012808D100202549087059
:102F900001202349087022201B49087025A2002126
:102FA0001020FFF7E5F926A210210846FFF7E0F907
:102FB00000E000BF00BF10E024A202210020FFF7C4
:102FC000D7F926A216210020FFF7D2F927A22A213D
:102FD0000020FFF7CDF900E000BF00BF10BD0000EA
:102FE0006B0000205A0000205C0000206C000020D4
:102FF00032200000340000003800000031360000AC
:10300000333200005D0000206E000020456E6162DA
:103010006C65200021456E61626C65005E000020D9
:1030200076000020750000204869676874204357C7
:10303000200000004869676874204343570000007F
:1030400020202020202020202000000053696D70C7
:103050003A2020303030302052504D0020457272DE
:103060003A20203030302E30302000002044656778
:103070003A2020303030302E3000000070B510483B
:10308000007828B10F480068401C0E49086004E031
:103090000C480068401E0B4908600A48006802F0AE
:1030A00083FC0646084902F097FC054602F060FCE6
:1030B0000446502100F00AF80A2001F0A1FD70BD7D
:1030C0001C000020440000200AD7A3422DE9F34F42
:1030D00083B00E4633480290039802F065FC0090DE
:1030E000029902F079FC019002F042FC83464FF411
:1030F0008051FEF725FD82460AF5806007B2B7F5DC
:10310000805F02DDA7F5805007B2274830F91A80AA
:1031100030F9179006FB08F0C11700EB91518912A6
:103120000CB206FB09F0C11700EB915189120DB2E8
:10313000002C0BDBA1B21D4801F0F3F901201C4962
:10314000086000201B49C1F89C010BE0604281B27D
:10315000164801F0E6F900201549086001201549DC
:10316000C1F89C01002D0CDBA9B2104801F0D7F981
:1031700001200F490831086000200E49C1F8A40160
:103180000CE0684281B2094801F0C9F90020084901
:103190000831086001200749C1F8A40105B0BDE865
:1031A000F08F000000004841D66500080004004090
:1031B000988121420080214210B500201E490860FC
:1031C0001E4908601E4908601E4908601E490860C3
:1031D0001E4908801E4908801E4908601E49086073
:1031E0001E4908801E4908601E49086048F22100F7
:1031F00000F024F940101C4931F810001149086012
:10320000084600680E4908600E48008800B20F4961
:1032100008800846B0F900000D4908800B48B0F955
:1032200000000C490860084600681049086000204A
:103230004FF08041888410BD080000200C00002061
:103240001000002014000020180000201E000020A4
:103250002000002024000020340000204000002036
:103260003C000020300000200080010828000020E1
:1032700010B5FEF703FF08A210210020FFF778F831
:1032800009A220210020FFF773F80BA230210020B3
:10329000FFF76EF810BD000020202066696E69738C
:1032A00068656421202000002020506C65617365F2
:1032B00020707265737320005265736574204B65CE
:1032C00079207265626F6F740000000029B1064AB0
:1032D000D2690243044BDA6104E0034AD2698243B3
:1032E000014BDA61704700000010024029B1064A24
:1032F00012690243044B1A6104E0034A12698243D3
:10330000014B1A61704700000010024029B1064AC3
:1033100092690243044B9A6104E0034A9269824332
:10332000014B9A61704700000010024029B1064A23
:10333000D2680243044BDA6004E0034AD268824355
:10334000014BDA60704700000010024030B50021E8
:103350000022002400232D4D6D6805F00C0121B1E1
:10336000042905D0082923D105E0294D056022E074
:10337000274D05601FE0254D6D6805F47012234D43
:103380006D6805F48034022505EB92421CB9214D8D
:10339000554305600BE01D4D6D6805F400351DB10A
:1033A0001C4D5543056002E0194D5543056002E090
:1033B000174D056000BF00BF144D6D6805F0F001AA
:1033C0000909154D6B5C0568DD4045600F4D6D6862
:1033D00005F4E061090A104D6B5C4568DD408560CD
:1033E0000A4D6D6805F46051C90A0B4D6B5C456868
:1033F000DD40C560054D6D6805F44041890B074D02
:103400006B5CC568B5FBF3F5056130BD001002408B
:1034100000127A0000093D00A9000020B900002038
:1034200010B548F2210000F009F8401010BD10B5A9
:1034300048F2010000F002F810BD000070B504462B
:1034400000202549086000BF0221244800F09AF8B6
:103450000028F9D02146214800F0A0F800BF012142
:103460001E4800F08FF80028F9D01C4800F093F8AF
:1034700005461B48006820F070401949086008465E
:10348000006840F08040086000BF0221134800F04F
:1034900079F80028F9D04FF6FF71104800F07EF857
:1034A00000BF01210D4800F06DF80028F9D00B484D
:1034B00000F071F8C0F30E050120074908600848C4
:1034C000006820F07040064908600846006840F037
:1034D00030400860284670BD900121420030014014
:1034E0000008014000B587B0012141F20400FFF758
:1034F0000DFFE020ADF8180018208DF81B00032008
:103500008DF81A0006A91748FDF7C4FFE0211548F9
:10351000FEF796F80020ADF804004FF48270ADF885
:1035200006004FF40060ADF808000020ADF80A0076
:103530000120ADF80C004002ADF80E001020ADF8EF
:1035400010000020ADF812000720ADF8140001A90A
:10355000054800F025F80121034800F007F807B0FE
:1035600000BD0000000801400030014021B1028888
:1035700042F04002028004E002884FF6BF731A4016
:10358000028070470246002013890B400BB10120D6
:1035900000E00020704701468889704781817047AC
:1035A00010B50022028802F441520B884C88234354
:1035B0008C882343CC8823430C8923434C892343A1
:1035C0008C892343CC8923431A430280838B4FF297
:1035D000FF74234083830B8A038210BD30B50346FA
:1035E0000C461546002207E01846FDF7FBFE24F8BE
:1035F00012009B1C501C82B2AA42F5DB30BD0000B9
:103600002DE9F05F80468A461746B8F1006F02D375
:103610003348804501D3BDE8F09FFDF7E5FDA8F1F3
:10362000006B4FEA9B25CBF34809C9F50074A7420C
:1036300000DC3C464EE04FF0006101EB85208A142F
:103640002849FFF7CBFF00260BE009EB06002549D0
:1036500031F810004FF6FF71884200D003E0701C73
:1036600086B2A642F1DB00BFA6421BDA4FF0006132
:1036700001EB8520FDF77AFE002608E03AF81600F7
:1036800006EB0901174A22F81100701C86B2A64207
:10369000F4DB4FF0006101EB85208A14114900F042
:1036A00023F804E022465146404600F01DF8A742A8
:1036B00000D110E06D1C4FF000090AEB440A08EB42
:1036C0004408381B87B2B7F5007F02DD4FF4007461
:1036D00000E03C46AFE700BFFDF75CFD00BF9AE7A6
:1036E00000000208280800202DE9F04105460E469A
:1036F0001746002407E036F814102846FDF754FD5D
:10370000AD1C601C84B2BC42F5DBBDE8F0817047A3
:1037100070B54FF400614FF4A14001F0B3F9FFF729
:1037200086FE054605F0800090B100240EE00120E1
:103730004B490860C82001F063FA00204949C1F8EC
:10374000B401C82001F05CFA601CC4B20A2CEEDBA4
:1037500045480088AA21B1EB202F32D000BF434852
:10376000006808B9FDF766FA41480078012833D0AF
:1037700040480068012808D13E48001D0068012823
:1037800003D110203C49087026E03A48006840B94F
:103790003848001D0068012803D108203649087008
:1037A0001AE034480068012807D13248001D00683B
:1037B00018B90420304908700EE002202E49087024
:1037C0000AE029480088AA21B1EB202F04D128481B
:1037D0000078012800D1C2E726481C38006820BBC9
:1037E00001202649087048F22100FFF727FE40100B
:1037F000234931F81000234908600846006822492F
:1038000008602048008800B2204908800846B0F9C6
:1038100000001F4908801D48B0F900001D490860DC
:10382000084600681C49086002E00020134908703F
:103830001A480078012812D10020184908700C4954
:103840000870FFF715FD00BF0548006880F0010013
:103850000449C1F8B401C82001F0D2F9F4E770BD01
:10386000B4012242000022424E0000203C012142CD
:103870005900002028812142480000204C000020EF
:103880000080010814000020100000201E0000200D
:1038900020000020240000202800002058000020E4
:1038A00010B500F001F810BD0CB50020019000909B
:1038B0003348006840F480303149086000BF304828
:1038C000006800F4003000900198401C01900098BE
:1038D00018B90198B0F5A06FF1D12948006800F43B
:1038E000003010B10120009001E00020009000980D
:1038F000012843D12348006840F0100021490860A6
:103900000846006820F0030008600846006840F0A0
:10391000020008601A484068194948600846406833
:1039200048600846406840F4806048600846406847
:1039300020F47C1048600846406840F4E810486075
:103940000846006840F08070086000BF0C480068BE
:1039500000F000700028F9D00948406820F003000A
:10396000074948600846406840F00200486000BFD0
:103970000348406800F00C000828F9D10CBD000095
:10398000001002400020024010B51348006840F0CB
:1039900001001149086008464068104908400E4976
:1039A0004860084600680E4908400B490860084610
:1039B000006820F4802008600846406820F4FE007B
:1039C00048604FF41F008860FFF76AFF4FF0006007
:1039D0000449086010BD0000001002400000FFF81C
:1039E000FFFFF6FE08ED00E010B5FFF7CDFF10BDBC
:1039F000F8B506460C4615468DF800608DF8014076
:103A00008DF8025001208DF803006846FEF7F4FAA5
:103A1000F8BD00007FB505460C464FF0804000F031
:103A200087FB01210420FFF771FC01210846FFF705
:103A30004DFC0120ADF80C0004208DF80F0003A907
:103A40001C48FDF727FDADF80450ADF800400020FC
:103A5000ADF80600ADF8020069464FF0804000F076
:103A600065FD00214FF0804000F02EFB4FF08040BC
:103A7000008940F480404FF08041088107230022F4
:103A800011464FF0804000F047FC00214FF080408D
:103A900000F03CFD00214FF0804000F02EFD0021A1
:103AA0004FF0804000F03FFD0121880700F01BFB34
:103AB0007FBD00000008014000B589B00121092048
:103AC000FFF724FC01210220FFF700FC0121294817
:103AD000FDF76CFD01212848FDF768FD18208DF8E1
:103AE00007003020ADF8040003208DF8060001A97E
:103AF0002248FDF7CFFC0020ADF81A000120ADF8F8
:103B000018000002ADF81C000020ADF81E0006A948
:103B10001B4800F00BFD0021194800F0EEFC0021CD
:103B2000174800F0D1FA6020ADF808000120ADF888
:103B30000A000020ADF810000320ADF80E0002A925
:103B40000F4800F025FC08210D4800F06DFC02A98B
:103B50000B4800F073FC0821094800F0C1FC01216A
:103B6000074800F0D5FA0121054800F0BCFA09B079
:103B700000BD00000002300000081A00000C0140E7
:103B80000004004070B50121FE4800F0E6FB00286B
:103B90006FD0FDF759FDFC480078012869D1FB483A
:103BA000007801287DD148F22100FFF747FC401042
:103BB000F74931F8100000B2F64908804FF0804014
:103BC00000F0C8FBF449086008460068F34909683A
:103BD000401A10F5004F08DAF1480078F1490968F9
:103BE00001EB0040EF4908600FE0EB480068EB494B
:103BF0000968401AB0F5004F07DDE9480078E94947
:103C00000968A1EB0040E7490860E6480068E4491C
:103C10000978E14A126801FB0200E3490860DE48C6
:103C20000068DE490860DB48B0F90000DF49B1F9FF
:103C30000010401AB0F5005F08DDDD480068401E46
:103C4000DB4908600120DB49087016E0D148B0F973
:103C50000000D649B1F90010401A10F5005F09DAEA
:103C6000D3480068401CD24908600120D14908703F
:103C700003E0E5E10020D0490870C648B0F9000033
:103C8000CB4909684FF4804202FB0100CB49086030
:103C9000C54800680968401AC949086008460068B4
:103CA00000E0DBE040F26661884206DD0846C44978
:103CB00008600120C34908600EE0C1480068C2499D
:103CC000884206DA0846BE4908600120BD490860FE
:103CD00002E00020BB490860BC49B1F90010B84AB5
:103CE000126801FB02F0C11700EBD161B84A1268FB
:103CF00002EB6111B64A116010460068B0F5C84F7A
:103D000004DD4FF4C8401146086007E0B048006881
:103D100010F5C84F02DAAF48AD490860AE4A1278D4
:103D2000AE4B1B6802FB03F1CA1701EB5262D311C1
:103D3000AB4A1278AB4CB4F9004062439F4C246804
:103D4000A94D2D68641B02FB04F0C21700EB5272F0
:103D5000A3EBE202A14B1A609D490968A34AB2F99C
:103D60000020974B1B6802FB03119C4A12688818BD
:103D7000C11700EB5161C91109B29D4A11808F48EA
:103D8000008899490988401A00EB400000B299491F
:103D900008808048B0F9000084490880874800689E
:103DA000914908601046B0F9000000281ADD9148DA
:103DB000B0F90000442803DD44208E49088007E064
:103DC0008C48B0F90000002802DA002089490880F8
:103DD0008848008852306F490988084400B26D490C
:103DE000088028E08248B0F90000002823DA8148E2
:103DF000B0F9000010F1440F04DA6FF043007D4980
:103E0000088007E07B48B0F90000002802DD0020B0
:103E1000784908807748B0F90000C0F152005D4948
:103E20000988081A00B25B4908807148008840423E
:103E300000B26F4908806E48B0F900006E490978F9
:103E4000884203DD6C480078694908806848017839
:103E50005048B0F90000FFF739F95FE04FF08040BB
:103E600000F078FA4C490860084600684B49096838
:103E7000401A10F5004F08DA4948007849490968A6
:103E800001EB0040474908600FE0434800684349A0
:103E90000968401AB0F5004F07DD414800784149F4
:103EA0000968A1EB00403F4908603E4800683C4972
:103EB0000978394A126801FB02003B49086036481C
:103EC000006836490860384800684C4909688842EB
:103ED0000DD14B480088401C49490880084600889D
:103EE000B0F57A7F06DB4FF47A70088002E000209C
:103EF0004349088042480088B0F57A7F05DB5021AD
:103F000029480068FFF7E2F804E0A021264800688D
:103F1000FFF7DCF824480068384908603948008811
:103F2000401C00B2374908802248007801281DD182
:103F300035480088401C344908800846008842F211
:103F40001071884212DB00202F4908802F48B0F9F9
:103F500000002F4908801648008800B22B490880CD
:103F60000020144908700120134908702548B0F951
:103F70000000B0F5FA6F63DB22480088A0F5FA6014
:103F800000B247E0000800404D0000204C00002037
:103F9000008001081E000020080000200C00002006
:103FA0004800002010000020140000202000002005
:103FB000300000206800002069000020240000205C
:103FC00034000020B40122429AF9FFFF02000020D1
:103FD00038000020009CFFFF705B00083C000020C0
:103FE000715B000804000020280000200000002071
:103FF000400000202C0000206A0000201800002053
:104000004A000020660000205600002064000020C6
:10401000620000200D49088001200D4908700D48FC
:10402000007810B901200C4908700C48B0F9000064
:104030000B49B1F90010884202D1002006490870EE
:104040000121084800F04CF870BD00006600002017
:104050005400002069000020680000206200002059
:1040600064000020000800407FB505460C46012191
:104070000420FFF72BF9ADF80850ADF804400020FC
:10408000ADF80A00ADF8060001A90E4800F04EFA9E
:104090001E208DF8000000208DF8010002208DF810
:1040A000020001208DF803006846FDF7A5FF0122FC
:1040B0001146044800F062F90121024800F013F8AB
:1040C0007FBD00000008004021B1028842F080025C
:1040D000028004E002884FF67F731A400280704726
:1040E000CA430282704721B1028842F00102028075
:1040F00004E002884FF6FE731A40028070470A46B9
:10410000002101884FF68F731940114301807047D9
:1041100031B1B0F8442042F40042A0F8442005E058
:10412000B0F84420C2F30E02A0F84420704700000B
:1041300010B504466848844208D10121C014FFF735
:10414000F5F80021E014FFF7F1F8C4E0B4F1804F76
:1041500008D101210846FFF7C9F800210120FFF727
:10416000C5F8B8E05D48844208D101210220FFF77C
:10417000BDF800210220FFF7B9F8ACE058488442AE
:1041800008D101210420FFF7B1F800210420FFF736
:10419000ADF8A0E05348844208D101210820FFF780
:1041A000A5F800210820FFF7A1F894E04E488442CA
:1041B00008D101211020FFF799F800211020FFF706
:1041C00095F888E04948844208D101212020FFF772
:1041D0008DF800212020FFF789F87CE044488442D4
:1041E00008D101214014FFF7A1F800216014FFF766
:1041F0009DF870E03F48844209D10121C804FFF7CF
:1042000095F800214FF40020FFF790F863E03A485A
:10421000844209D101210805FFF788F800214FF4F5
:104220008010FFF783F856E03448844209D1012119
:104230004805FFF77BF800214FF40010FFF776F8F0
:1042400049E02F48844208D101214020FFF74EF871
:1042500000214020FFF74AF83DE02A48844208D177
:1042600001218020FFF742F800218020FFF73EF86F
:1042700031E02548844208D101218015FFF736F846
:104280000021A015FFF732F825E02048844209D12B
:1042900001210804FFF74AF800214FF48030FFF7AE
:1042A00045F818E01A48844209D101214804FFF773
:1042B0003DF800214FF40030FFF738F80BE01548C7
:1042C000844208D101218804FFF730F800214FF41F
:1042D0008020FFF72BF810BD002C014000040040A7
:1042E00000080040000C0040001000400014004096
:1042F00000340140004C0140005001400054014096
:1043000000180040001C0040002000400040014018
:104310000044014000480140F0B504460D461646F1
:104320001F463B4632462946204600F005F82089C4
:1043300040F480402081F0BD30B50C460021018959
:10434000C9B24FF6FF7505EA0325154325432943F6
:10435000018130BD0146888C704730B5024600208F
:1043600000230024158A05EA0103958905EA010462
:1043700013B10CB1012000E0002030BD1AB18389D7
:104380000B43838102E083898B4383817047000064
:1043900070B5002400220023058C4FF6FE763540D0
:1043A0000584028C8388048B4FF68F752C40B51ED4
:1043B0002C400D882C43751E2A400D892A434D88B8
:1043C0002A43144DA8420BD0134DA84208D0134DD8
:1043D000A84205D0124DA84202D0124DA84213D1D6
:1043E0004FF6F7752A404D892A434FF6FB752A4050
:1043F0008D882A434FF6FF652B404FF6FF552B4023
:104400008D892B43CD892B4383800483CD8885867A
:10441000028470BD002C0140003401400040014086
:1044200000440140004801400A460021018B4FF63C
:10443000F7731940114301837047000070B50024E1
:1044400000220023058C4FF6EF7635400584028C60
:104450008388048B48F6FF752C404FF6FF452C40AF
:104460000D884FF6FF7606EA05252C434FF6DF75DB
:104470002A400D8906EA05152A434D8806EA0515E6
:104480002A43154DA84202D0144DA8421DD14FF623
:104490007F752A404D894FF6FF7606EA05152A43B7
:1044A0004FF6BF752A408D8806EA05152A434FF658
:1044B000FF352B404FF2FF752B408D8906EA8505AD
:1044C0002B43CD8906EA85052B4383800483CD8861
:1044D0000587028470BD0000002C014000340140BB
:1044E0000A460021018B4FF2FF7319404FF6FF730C
:1044F00003EA022319430183704702894FF67F7351
:104500001A40028102890A430281704782884FF66D
:104510008F731A40828082880A4382807047818626
:10452000704701877047818470470000002202882D
:104530001D4B98420ED01D4B98420BD0B0F1804FCE
:1045400008D01B4B984205D01A4B984202D01A4B08
:10455000984204D14FF68F731A404B881A43174B79
:10456000984207D0164B984204D04FF6FF431A40AA
:10457000CB881A4302808B8883850B8803850A4B7E
:1045800098420BD0094B984208D00E4B984205D068
:104590000D4B984202D00D4B984201D10B7A038605
:1045A0000123838270470000002C01400034014049
:1045B0000004004000080040000C004000100040D3
:1045C0000014004000400140004401400048014008
:1045D0007FB505460C46284600F0FAF80094002006
:1045E000ADF80400ADF80600ADF80800ADF80C0019
:1045F0000C20ADF80A006946284600F093F97FBD0B
:1046000038B504460D461E48844238D1012144F293
:104610000500FEF77BFE6015ADF8000018208DF850
:10462000030003208DF8020069461648FCF732FFAC
:104630002015ADF8000004208DF8030069461148EC
:10464000FCF728FF29462046FFF7C2FF032201217D
:104650002520FFF7CDF9012240F22551204600F038
:104660003CF9012240F22441204600F036F90121B4
:10467000204600F0A0F84021204600F084F838BD24
:10468000003801400008014010B540F2255129488A
:1046900000F0F9F860B12748001D0088C1B2264833
:1046A00002780078401C244B1870244881543BE069
:1046B00040F224411F4800F0E6F8012834D11D489B
:1046C0000088C4B21B48001D0088C4B21B48007893
:1046D000FE2823D119484078FE281FD116480078BB
:1046E000401E1649085C162818D1002240F22551B8
:1046F000104800F0F2F8002240F224410D4800F08A
:10470000ECF80D4800780E49087000200A4908703E
:1047100001200C4908700C49087005E0002006498A
:10472000087001200949087040F22551014800F045
:1047300033F810BD003801407B000020FC00002051
:104740007C0000207E0000207F00002080000020F0
:1047500010B504460548048000BF40210348001FEF
:1047600000F084F80028F8D010BD000004380140A3
:1047700010B5044603E014F8010BFFF7E9FF2078B9
:104780000028F8D110BD01F40072B2F5007F00D10D
:1047900000BFCA430280704710B50022002340F6D4
:1047A0006A14A14200D100BF0A1201249440A3B2AE
:1047B000DC43048010BD21B1828942F40052828121
:1047C00004E082894DF6FF731A4082817047000031
:1047D00010B504462048844209D101218803FEF720
:1047E000A5FD00214FF48040FEF7A0FD32E01B48FC
:1047F000844209D101214804FEF778FD00214FF4DD
:104800000030FEF773FD25E01548844209D10121EF
:104810008804FEF76BFD00214FF48020FEF766FD53
:1048200018E01048844209D10121C804FEF75EFD5A
:1048300000214FF40020FEF759FD0BE00A488442A6
:1048400008D101210805FEF751FD00214FF4801029
:10485000FEF74CFD10BD0000003801400044004050
:1048600000480040004C004000500040024600203C
:10487000B1F5007F00D100BF13880B400BB10120C0
:1048800000E00020704770B5024600240023002598
:10489000002040F66A16B14200D100BFC1F34215B4
:1048A00001F01F03012606FA03F3012D02D19689B8
:1048B000334006E0022D02D1168A334001E0968A89
:1048C00033400C12012606FA04F41688344013B162
:1048D0000CB1012000E0002070BDF0B503460024BB
:1048E00000260025002040F66A17B94200D100BF1B
:1048F0001846C1F3421401F01F06012707FA06F516
:10490000012C01D10C3004E0022C01D1103000E068
:1049100014301AB107682F43076002E00768AF43FD
:104920000760F0BD2DE9F04786B005460E4600242D
:10493000A24600BFA1460027B08900B100BF2F46A4
:104940002C8A4CF6FF700440F08804432C82AC891A
:104950004EF6F3100440B08831890843718908434A
:104960000443AC81AC8A4FF6FF400440B089044355
:10497000AC8201A8FEF7EAFC1F48874202D1DDF8AD
:1049800010A001E0DDF80CA0A88900F4004040B1BF
:104990000AEBCA0000EB0A1031684900B0FBF1F8DD
:1049A00007E00AEBCA0000EB0A1031688900B0FB8F
:1049B000F1F86420B8FBF0F004012009642101FB48
:1049C0001089A88900F4004040B1322000EBC900F2
:1049D000B0FBF1F000F00700044308E0322000EBE8
:1049E00009106421B0FBF1F000F00F0004432C81AA
:1049F00006B0BDE8F08700000038014000B585B082
:104A0000142001218140174A430942F8231000BFB6
:104A100002211548FBF73CFE6A4600211248FBF7CD
:104A2000AEFF0020114908600EE00DF10B000F49A8
:104A30000968425C0D4801680DA0FBF7CFFB0B48ED
:104A40000068401C09490860084800680828ECDB39
:104A500000210548FBF770FE1420FDF7C2FA05B0EF
:104A600000BD000080E100E000640040D4000020B0
:104A700072786275665B25645D3A2523780D0A00BD
:104A800000BFFEE770B504460D46002017490860D8
:104A900000BF02211648FEF775FD0028F9D0214617
:104AA0001348FEF77BFD00BF01211148FEF76AFDA8
:104AB0000028F9D00E48FEF76EFD00BF02210C4819
:104AC000FEF760FD0028F9D029460948FEF766FD8B
:104AD00000BF01210648FEF755FD0028F9D0044823
:104AE000FEF759FD01200149086070BD9001214287
:104AF0000030014000BF704710B5244800780028FE
:104B000042D00020214908702148807805282CD106
:104B10001F4800791F49088008460088000200B23B
:104B200008801B484079B1F90010084319490880F2
:104B30001748C078A02814DB1548C078BF2810DCBF
:104B40001348C07800F0A000A02803D1012012492A
:104B5000087002E000201049087001200F49087019
:104B600006E00FA0FFF704FE02E012A0FFF700FE30
:104B7000012240F225511448FFF7AFFE012240F216
:104B800024411148FFF7A9FE10BD0000810000205C
:104B9000FC0000208400002079000020820000201A
:104BA00046756E6374696F6E20436F64652065722D
:104BB000720D0A0044617461204C656E6774682050
:104BC0006572720D0A000000003801404FF0E021CC
:104BD000096921F004014FF0E0221161C21700EBD6
:104BE0005272D210044B1A60194609684FF47A7257
:104BF0005143024A11607047C0000020C4000020E9
:104C000001460D4A12684A434FF0E0235A610022E0
:104C10009A6101221A6100BF4FF0E022106900F092
:104C200001021AB100F48032002AF5D000224FF0C0
:104C3000E0231A619A617047C400002001460D4AC2
:104C400012684A434FF0E0235A6100229A61012220
:104C50001A6100BF4FF0E022106900F001021AB1A2
:104C600000F48032002AF5D000224FF0E0231A61D0
:104C70009A617047C000002070B504460D46E0B24E
:104C80000549088000BF40210348001FFFF7EEFDE3
:104C90000028F8D0204670BD043801401FB5B8A2E6
:104CA00007CA01AB07C300BFFEF79EFE4820FFF70F
:104CB0008DFF4FF4A060FDF7D7F9FCF723FFFDF758
:104CC00029FAB2A200210846FDF752FB6420FFF743
:104CD00097FFFCF7F3FEFDF7D1F9B0A200210846DB
:104CE000FDF746FB00F058FCFDF764F9FEF7E4FE23
:104CF000FCF77AFAAE48FCF775FBAE490880FCF782
:104D000049FAAC480088AA21B1EB202F63D1AAA2AE
:104D100019210020FDF72CFBABA22D212820FDF747
:104D200027FB4FF4FA70FFF76BFFFDF7A7F9A8A276
:104D300002210020FDF71CFBA9A216210020FDF78F
:104D400017FBABA22A210020FDF712FB0220AC4981
:104D500008700120AB4908700020AB4908700120A1
:104D6000AA490870AA4908700E22AA499048FEF77D
:104D700035FCFEF7CDFCA7488078A7490870A54808
:104D80000079A6490870A3488079A5490870A14810
:104D9000007AA44908709F48807AA34908709D480A
:104DA000007BA24908709B48807BA1490870994804
:104DB000007CA04908709748C08A00B29E490880CC
:104DC0009448008B00B29D4908809248408B00B205
:104DD0009B4908801FE09BA210213020FDF7C8FAF4
:104DE00099A220211020FDF7C3FA9AA230210020B9
:104DF000FDF7BEFA4FF4FA70FFF702FFFDF73EF938
:104E000099A200210846FDF7B3FA03E0FCF728FC5D
:104E1000FDF7FEFAFAE7FCF71DF9072001218140B2
:104E20004209920002F1E022C2F8001100BF4FF4E3
:104E300016418E48FFF7E4FB0120062304220521DA
:104E400000900020FBF76EFB082101A8FBF7EAFBAE
:104E5000874908706420FFF7D3FE8548007818B1B1
:104E600084A0FBF7BBF902E088A0FBF7B7F90021AB
:104E70004FF6FF70FEF7CEFD002141F61F40FFF711
:104E8000F3F87CE06848007801280ED18548006876
:104E9000012802D100F01CF907E05D480078401CB1
:104EA0005B4908700020804908705F48007868B945
:104EB0007C48006810B900F00BF907E0544800780E
:104EC000401C53490870002077490870504800780A
:104ED000012812D10020744908704D480078401C08
:104EE0004B490870FEF768F9002070490880704946
:104EF000088001206F49087008E0454800780328C1
:104F000004DD43480078401E4149087000F07EFBF4
:104F1000FFF7F2FD00F0FEF86748007828B10020A6
:104F20006549087065A0FFF723FC684800780128F0
:104F30001FD1002065490870002240F225514B48DE
:104F4000FFF7CBFC002240F224414848FFF7C5FCA4
:104F50000E2230491648FEF753FB012240F225513C
:104F60004248FFF7BAFC012240F224413F48FFF7D4
:104F7000B4FCFCF775FBFDF74BFAFCF7EFFD81E79E
:104F80003132333435363738000000004F6C6564F9
:104F900020496E69742E2E2E4F4B0000436C6F73A8
:104FA00065204C6F6F70204D6F64656C00000000D1
:104FB000007C01084E000020202043616C69627271
:104FC0006174696F6E20200020204F4B210000008B
:104FD00053696D703A2020303030302052504D00EF
:104FE000204572723A20203030302E3030200000C0
:104FF000204465673A2020303030302E30000000E9
:10500000510000205A0000205300002050000020D2
:105010007A000020E00000206A0000205B000020F1
:10502000480000205C000020720000205D0000208D
:105030006F0000205E000020000000200200002021
:10504000040000204E4F540043616C696272617429
:10505000696F6E00506C656173652063616C696295
:1050600072617465000000002D3E000000380140B0
:10507000A800002043414E31205472616E73706F5E
:105080007274206661696C210D0A000043414E3143
:10509000205472616E73706F7274204F4B210D0A31
:1050A00000000000080121424D00002062000020A5
:1050B0006400002054000020800000204672616DD2
:1050C0006520457272210D0A000000007900002061
:1050D00010B50E48007888B14FF08040008820F06D
:1050E00001004FF080410880FEF766F84FF08040E5
:1050F000008840F001004FF0804108800120044901
:10510000087000200149087010BD00007A000020DE
:105110004D00002070B5BD480078012878D10020EE
:10512000BA490870BA48C078A038152871D2DFE8AB
:1051300000F00B1B2B3B5294B77070707070707046
:105140007070D4F7F1F0EF00B248B0F90000B24946
:10515000088008460088B149C882AF48B0F90010FD
:10516000AFA0FBF73BF84EE1AA48B0F90000B04908
:10517000088008460088A9490883AD48B0F90010A6
:10518000ACA0FBF72BF83EE1A248B0F90000AD4916
:10519000088008460088A1494883AA48B0F9001051
:1051A000A9A0FBF71BF82EE19A48B0F90000642192
:1051B00090FBF1F0C006000EA74908700846007881
:1051C000C010A6490870A448007894494880A348B4
:1051D0000078888017E10020A1490870FDF7ECFFF6
:1051E0008C48B0F90000402191FBF0F09D49087017
:1051F000084600788949C8809A48007800F03E0047
:10520000082814D006DC022809D004281BD10AE0A3
:10521000FAE0F4E010280ED0202814D10FE004208A
:105220009149087013E003208F4908700FE00220B5
:105230008D4908700BE001208B49087007E00020C1
:105240008949087003E003208749087000BF00BF48
:105250008548007871490881D5E0002080490870B0
:10526000FDF7AAFF6B48B0F90000AA2806D100207C
:105270007E49087001207E49087009E06548008871
:10528000552805D101207949087000207849087017
:105290007648007861494881754800788881B2E095
:1052A0005C480088112806D101207249087000204E
:1052B0007149087009E057480088222805D100206C
:1052C0006C49087001206C4908706A48007853499D
:1052D000C88169480078088295E04D480079AA287D
:1052E0001AD14B484079AA2816D14B48B0F9001082
:1052F00062A0FAF773FF4E48B0F9001063A0FAF706
:105300006DFF5048B0F9001064A0FAF767FF06E09F
:1053100057E038E01AE003E064A0FFF729FA72E0F2
:105320003B480079AA280DD139484079AA2809D1EB
:1053300049480078C010642200FB02F15FA0FAF730
:105340004DFF02E062A0FFF713FA5CE030480079FD
:10535000AA2814D12E484079AA2810D141480078B3
:105360004FF4804191FBF0F43E480078402191FBDE
:10537000F0F5224629465BA0FAF730FF02E060A074
:10538000FFF7F6F93FE022480079AA2815D1204816
:105390004079AA2811D135480078012804D1334832
:1053A00001785DA0FAF71AFF3048007840B92F481D
:1053B00001785DA0FAF712FF02E05FA0FFF7D8F9CD
:1053C00021E013480079AA2815D111484079AA286C
:1053D00011D12848007820B9264801785BA0FAF757
:1053E000FDFE24480078012808D1224801785BA0FE
:1053F000FAF7F4FE02E05DA0FFF7BAF903E05FA060
:10540000FFF7B6F900BF00BF70BD000082000020AA
:10541000FC0000208400002000000020E0000020AC
:105420006E6577206B70203D2025640D0A0000001A
:10543000020000206E6577206B69203D2025640DF9
:105440000A000000040000206E6577206B64203D98
:105450002025640D0A0000006A0000205B00002087
:105460004D000020480000205C0000207200002059
:105470005D0000206F0000205E00002070202D2DB8
:105480002D206B70203D25640D0A000069202D2D14
:105490002D206B69203D25640D0A000064202D2D10
:1054A0002D206B64203D25640D0A00005265616467
:1054B00020504944206572720D0A000043757272D3
:1054C000656E7473203D2564206D410D0A00000057
:1054D000526561642043757272656E7420657272E4
:1054E0000D0A00004D6963726F73746570203D256D
:1054F00064202D2D3E256420476561720D0A000051
:1055000052656164204D6963726F737465702065C4
:1055100072720D0A00000000456E61626C65203DEC
:105520002564200D0A00000021456E61626C652033
:105530003D2564200D0A00005265616420656E619E
:10554000626C65206572720D0A0000004469722069
:105550003D25642C204343570D0A00004469722006
:105560003D25642C2043570D0A00000052656164FC
:1055700020446972206572720D0A000046756E63E0
:1055800074696F6E20436F646520556E646566694B
:105590006E65640D0A00000008B501210D20FDF7BD
:1055A000B5FE01211548FCF701F81020ADF8000008
:1055B0008DF8030003208DF8020069461048FBF7C0
:1055C00069FF4FF40040ADF8000048208DF803005B
:1055D00003208DF8020069460948FBF75BFF40F69F
:1055E0000840ADF8000069460648FBF753FFFDF799
:1055F00079FF01200449086008BD00000002300066
:1056000000080140000C01409001214210B5002427
:105610002A480078002850D00020284908702848DF
:10562000007800283DD00020254908700220254937
:10563000087012E0244823490978405C204484B271
:1056400022480078C01E1F490978884200D1E4B280
:105650001C480078401C1B4908701C480078801EBC
:10566000184909788842E5DC174816490978405CF2
:10567000A04206D101201649087016A0FAF7AEFD27
:105680001BE016A0FAF7AAFD012240F225511848A6
:10569000FFF723F9012240F224411548FFF71DF9D5
:1056A0000BE0012240F225511148FFF716F90122C3
:1056B00040F224410E48FFF710F910BD7E00002093
:1056C0007F000020CC000020FC0000207C00002097
:1056D000810000204F4B0D0A000000004352432080
:1056E000766572696679206572720D0A00000000A5
:1056F000003801404FEA1153A3F58063D3F11E0334
:10570000A8BFD3F1200C08DB4FF0004242EAC122CF
:1057100052EA505232FA03F0704709420BD4102B70
:10572000C4BF0020704703F5787CBCF1FF3F05D073
:105730004FF0FF3070474FF00000704770B500F039
:10574000C3F800BF4992248000207047F0E7B0FA08
:1057500080F310FA03F10AD0C3F11D0303F580634F
:105760004FEA41504FEA035202EBD12170474FF00C
:1057700000007047DFF848C170B51CEA111E1EBF5B
:105780001CEA13159EEA0C0F95EA0C0F00F06F80CF
:1057900081EA030423EA4C134EEAD47E21EA4C1139
:1057A00041F4801143F48013AE44A1FB024CA0FBF2
:1057B0000365AEF17F7E361955EB0C05A1FB034C5A
:1057C0004CF10003A0FB021C16EB0C06654153F1E3
:1057D0000003094218BF46F0010613F4007F0BD105
:1057E0004FEA03314FEA0530340341EA155140EAEC
:1057F00016506FF003020AE04FEAC3214FEAC520BA
:10580000F40241EA555140EA56506FF0020202EBB1
:105810002E4201EB025585EACE710AD05FEA440CB4
:1058200018BF24F0004450F1000041F1000120EACB
:10583000D47040F2FE7C624500D270BDA84214BF15
:105840004FF080444FF04044002E08BF0024BEF1CA
:10585000806FA8BFA1F1C041BDE8704080F2828096
:105860004FF0000001F1C04101F0004170479EEA95
:105870000C0F0CEA131518BF95EA0C0F06D04FF069
:10588000000081EA030E0EF0004170BD00F01CF82C
:105890008900013E00F007B800F009B84FEA430C58
:1058A0005FEA5C5C08D081EA030100F05BB84FEA74
:1058B000410C5FEA5C5CF6D14FF000000149704793
:1058C0000000FF070000F87F0EF1020E2EF0030E1D
:1058D0005EF8046B364205D4012A43EB030515F547
:1058E000001F12D8012841EB010C1CF5001F0CD839
:1058F0000ED14FEAD17C15F5001F0CEB4C0C0CF1CE
:10590000020C08BF4CEBD37C04E04FF0080C01E024
:105910004FEAD37C0CEB4C0526FA05F606F0070699
:10592000B6F1040C06D20EEB860CBDE870404CF0CC
:10593000010C6047DFE80CF0090B02024FF0004158
:105940004FF00000A1F5002170BD19461046012856
:1059500051EB010418BFD4F5001484BF002001F0FE
:10596000004170BD0808A0F500114FEA31017047F1
:1059700041000B0ED3F19E0208D950F400034FEA08
:10598000032323FA02F048BF4042704710B500F0ED
:10599000A4F800BF49922480002070476FF00042B5
:1059A00082EA20007047000010F0004148BF4042EA
:1059B000B0FA80F310FA03F2C3F19D030BD051EA61
:1059C000C35101EB1220530638BF704700F10100AC
:1059D00008BF20F0010070474FF47F0C1CEAD01282
:1059E0001EBF1CEAD11392EA0C0F93EA0C0F00F0D1
:1059F000478090EA010F48BF42F480724FF0004C9C
:105A00004CEA00204CEA012102EB0302A0FB011347
:105A1000A2F50002002918BF43F001035B0028BF74
:105A20004FEA330342EB22425FEA132C4CEBC250A5
:105A30002EBFBCEB436FB2F57C0F70474FEA036C8F
:105A4000BCF1004F08BF20F00100B2F57C0F38BF59
:105A500070470BD582F0FF0212F5803FC8BF704738
:105A600000F1C040D8BF00F00040704700F5000CC6
:105A70005FEA4C0C48BF7047B0F1C04000F073B80B
:105A800090EA010F0CEAD11348BF42F480726245DC
:105A900038BF634504D280EA010000F0004070473F
:105AA00010B500F01AF800BF8900013E00F007B8F9
:105AB00000F009B85FEA410C5FEA1C6C08D080EA8C
:105AC000010000F050B85FEA400C5FEA1C6CF6D1B0
:105AD0004FF00040A0F5800070470EF1020E2EF04E
